:1000000090040020B15400009D5400009F54000053
:10001000A1540000A3540000A554000000000000FB
:10002000000000000000000000000000A7540000D5
:10003000A954000000000000AB540000AD540000C3
:10004000F1540000F5540000F9540000FD54000084
:100050000155000005550000095500000D55000030
:100060001155000015550000195500001D550000E0
:100070002155000025550000295500002D55000090
:100080003155000035550000395500003D55000040
:100090004155000045550000495500004D550000F0
:1000A0005155000055550000595500005D550000A0
:1000B0006155000065550000695500006D55000050
:1000C0007155000075550000795500007D55000000
:1000D0008155000085550000895500008D550000B0
:1000E00091550000955500009955000080B5DFF846
:1000F000681B897A002902D15FF0FF3042E080B2AC
:10010000FA2809D0B0F5FA7F14D0B0F57A7F15D06F
:10011000B0F5FA6F16D019E000208DF80000DFF876
:10012000380B007A9DF80010C9B2C908884210D176
:10013000002027E008208DF80000F0E710208DF85F
:100140000000ECE718208DF80000E8E75FF0FF30D2
:1001500018E000AB0122DFF8000B00688179DFF8BE
:10016000F80A4068007801F083FE002802D05FF0B2
:10017000FF3007E0DFF8E00A9DF80010C9B2C908B7
:100180000172002002BD80B5DFF8CC1A897A0029FF
:1001900002D15FF0FF303FE0C0B2022806D0042851
:1001A00012D0082814D0102816D019E000208DF89D
:1001B0000000DFF8A40A407A9DF80010C9B2C9080F
:1001C000884210D1002027E008208DF80000F0E7D9
:1001D00010208DF80000ECE718208DF80000E8E70B
:1001E0005FF0FF3018E000AB0122DFF86C0A006816
:1001F000C179DFF8640A4068007801F039FE002810
:1002000002D05FF0FF3007E0DFF84C0A9DF80010E5
:10021000C9B2C9084172002002BD80B5DFF8381AA2
:10022000897A002902D15FF0FF3045E080B2BC2816
:1002300003D301208DF800001EE080B2622803D3B2
:1002400002208DF8000017E080B22A2803D3032093
:100250008DF8000010E080B2142803D304208DF83C
:10026000000009E080B20A2803D305208DF80000C1
:1002700002E006208DF80000DFF8DC09C07A9DF866
:100280000010884201D1002016E000AB0122DFF807
:10029000C80900688178DFF8C0094068007801F07B
:1002A000E7FD002802D05FF0FF3005E0DFF8A80985
:1002B0009DF80010C172002002BD10B582B004008C
:1002C000DFF8940990F82300E4B2A04201D10020A5
:1002D00036E0E4B2002C03D030208DF8000002E0BC
:1002E00000208DF80000DFF87009807C002805D020
:1002F0009DF8000050F002008DF80000DFF858096A
:1003000090F82200002805D09DF8000050F08000F1
:100310008DF8000000AB0122DFF83C090068017D88
:10032000DFF834094068007801F0A2FD002802D00F
:100330005FF0FF3004E0DFF8200980F82340002060
:1003400016BD80B5DFF8101991F82410002920D0CF
:10035000C0B2002803D002208DF8000002E0002087
:100360008DF8000000AB0122DFF8EC080068C17BCB
:10037000DFF8E4084068007801F07AFD002802D038
:100380005FF0FF3038E0DFF8D0089DF800104174CE
:1003900031E0DFF8C418897A002902D15FF0FF301C
:1003A0002AE0C0B2002806D0DFF8AC18497C00294A
:1003B00001D0002020E0C0B2002803D001208DF839
:1003C000000002E000208DF8000000AB0122DFF801
:1003D00088080068C17BDFF880084068007801F079
:1003E00047FD002802D05FF0FF3005E0DFF8680825
:1003F0009DF800104174002002BD80B5DFF8580858
:10040000807A002802D15FF0FF300BE100208DF8E8
:10041000000000AB0122DFF840080068C17BDFF874
:1004200038084068007801F023FD002802D05FF012
:10043000FF30F7E000AB0122DFF81C0800684179CB
:10044000DFF814084068007801F012FD002802D09F
:100450005FF0FF30E6E000AB0122DFF8FC07006848
:100460000179DFF8F4074068007801F001FD002809
:1004700002D05FF0FF30D5E0DFF8DC0790F8240011
:10048000002866D00C208DF8000000AB0122DFF8B8
:10049000C80700680179DFF8C0074068007801F0FC
:1004A000E7FC002802D05FF0FF30BBE0322001F013
:1004B00033FDC0208DF80000DFF89C07807AC0076C
:1004C00005D59DF8000050F020008DF8000000AB2D
:1004D0000122DFF8840700680179DFF87C074068B3
:1004E000007801F0C5FC002802D05FF0FF3099E0F1
:1004F000DFF86407407C002803D002208DF800005C
:1005000002E000208DF8000000AB0122DFF8480770
:100510000068C17BDFF840074068007801F0A8FC64
:10052000002802D05FF0FF307CE000208DF8000052
:1005300000AB0122DFF8200700684179DFF81807D7
:100540004068007801F094FC00286AD05FF0FF302A
:1005500068E004208DF8000000AB0122DFF8F80607
:1005600000680179DFF8F0064068007801F080FC4F
:10057000002802D05FF0FF3054E0DFF8DC06807C1A
:10058000002804D1DFF8D006807AC00703D44020C9
:100590008DF8000002E060208DF8000000AB012221
:1005A000DFF8B40600680179DFF8AC06406800782F
:1005B00001F05EFC002802D05FF0FF3032E0322014
:1005C00001F0AAFCDFF89006407C002803D001204F
:1005D0008DF8000002E000208DF8000000AB012241
:1005E000DFF874060068C17BDFF86C0640680078AD
:1005F00001F03EFC002802D05FF0FF3012E0DFF88F
:10060000F83C0122DFF8500600684179DFF848061F
:100610004068007801F02CFC002802D05FF0FF3029
:1006200000E0002002BD70B50400002614F0FE04B6
:10063000DFF8240690F82400002801D0002038E0DC
:10064000DFF81406807A002802D15FF0FF3030E036
:10065000DFF80406057CDFF80006807A2040DFF82A
:10066000F8150874DFF8F005007CE4B2A04202D06F
:100670005FF0FF3600E00026E4B2002C04D1DFF882
:10068000D805007D002803D00120FFF75AFE02E0C4
:100690000020FFF756FEE4B2002C09D0FFF7ADFEB4
:1006A000002805D0DFF8B00505745FF0FF3000E0EA
:1006B000300070BD10B582B00400E4B2292C02D322
:1006C0005FF0FF3074E0E4B2002C1FD10020FFF790
:1006D000F4FD00208DF8000007208DF8010000AB2C
:1006E0000222DFF874050068817CDFF86C05406841
:1006F000007801F0BDFB002802D05FF0FF3057E02A
:10070000DFF8540500210175002051E00120FFF7BA
:10071000D4FD20208DF80000E4B2012C06D1002089
:100720008DF801000520FFF778FD19E0E4B2062CF2
:1007300006D201208DF801000520FFF76EFD0FE0C5
:10074000E4B2152C06D202208DF801000A20FFF732
:1007500064FD05E003208DF801001420FFF75DFD26
:100760009DF80100800150F007008DF8010000ABFA
:100770000222DFF8E4040068817CDFF8DC044068D2
:10078000007801F075FB002802D05FF0FF300FE029
:10079000DFF8C40408218172DFF8BC040021017372
:1007A000DFF8B404012101750020FFF73CFF0020B1
:1007B00016BD10B582B00400DFF89C04807A0028D2
:1007C00002D15FF0FF3053E0DFF88C0490F8240092
:1007D000002802D05FF0FF304AE0DFF87C04007DA3
:1007E00000280ED0A4B2002C08D0A4B2292C05D227
:1007F0002000C0B2FFF75EFF002039E00020FFF7C5
:1008000059FFA4B2042C01D2042406E040F2E930DE
:10081000A4B2844201D34FF47A744FF47A70A4B234
:1008200090FBF4F0401E8DF8000000AB0122DFF8D1
:10083000280400684178DFF820044068007801F05F
:1008400017FB002802D05FF0FF3011E04FF47A7000
:100850009DF80010491C90FBF1F0DFF8FC13C881F3
:10086000DFF8F403C08980B24008FFF7D6FC00200F
:1008700016BD10B582B00400DFF8DC03807CE4B262
:10088000A04201D10020B4E0E4B2002C56D000AB6D
:100890000122DFF8C40300680179DFF8BC03406877
:1008A000007801F003FB002802D05FF0FF30A0E0E9
:1008B0009DF8000010F0DF008DF8000000AB012271
:1008C000DFF8940300680179DFF88C034068007852
:1008D00001F0CEFA002802D05FF0FF3089E003205B
:1008E00001F01AFB02208DF80000DFF86C0390F88D
:1008F0002200002805D09DF8000050F080008DF8FF
:100900000000DFF8540390F82300002805D09DF87C
:10091000000050F030008DF8000000AB0122DFF83D
:1009200038030068017DDFF830034068007801F08B
:100930009FFA00285AD05FF0FF305AE000AB012246
:10094000C54800680179C4484068007801F0AEFAF3
:10095000002802D05FF0FF304BE0BF48807AC0072C
:1009600006D59DF8000050F020008DF8000005E04D
:100970009DF8000010F0DF008DF8000000AB0122B0
:10098000B54800680179B4484068007801F070FA11
:10099000002802D05FF0FF302BE0032001F0BCFA0A
:1009A000AD4890F82200002803D080208DF8000088
:1009B00002E000208DF80000A74890F823000028EE
:1009C00005D09DF8000050F030008DF8000000AB1D
:1009D0000122A1480068017D9F484068007801F02D
:1009E00047FA002802D05FF0FF3002E09A48847492
:1009F000002016BD10B582B004007020044203D060
:100A000001208DF8000009E0E4B2002C03D00020A2
:100A10008DF8000002E040208DF8000000AB0122BC
:100A20008D480068817C8C484068007801F020FA8D
:100A3000002805D08848002181725FF0FF304CE02B
:100A400085489DF8001011F0BF01017300208DF85A
:100A50000000600605D49DF8000050F004008DF8F9
:100A60000000A00605D49DF8000050F002008DF8AB
:100A70000000E00605D49DF8000050F001008DF85C
:100A80000000200705D49DF8000050F038008DF8D4
:100A9000000000AB012270480068C17C6E484068CD
:100AA000007801F0E5F9002805D06B48002181723B
:100AB0005FF0FF3011E0E4B2002C05D0E4B2082C66
:100AC00002D00020FFF7F9FB6348847262480021DE
:100AD0000175322001F020FA002016BD80B55E4974
:100AE00091F82410C0B2814201D100203FE0C0B291
:100AF000002826D0584890F82500002802D15FF041
:100B0000FF3034E00020FFF71CFC0020FFF7B1FEAF
:100B10005148C08CFFF74DFE00208DF8000000AB5F
:100B2000012223214C484068007801F0A1F94A488D
:100B3000012180F824100120FFF703FCFFF75DFC82
:100B400014E00020FFF7FDFB4348007C8DF8000017
:100B500000AB0122232140484068007801F088F969
:100B60003D48002180F82410FFF747FC002002BD1B
:100B70003949097A002905D002290AD005D3032969
:100B80000BD00EE0FA2101800DE04FF4FA710180E4
:100B900009E04FF47A71018005E04FF4FA610180B9
:100BA00001E000210180002070472B49497A00298B
:100BB00005D0022911D00DD3032911D013E0022151
:100BC00001702549C97C002902D0017849000170D3
:100BD0000020704704210170F3E708210170F0E75D
:100BE00010210170EDE75FF0FF30F2E71A49C97A92
:100BF000012909D01AD303290CD008D305290FD015
:100C00000BD306290FD011E0BC21018010E0622136
:100C100001800DE02A2101800AE01421018007E013
:100C20000A21018004E00521018001E0002101800A
:100C300000207047084991F82410002902D05FF085
:100C4000FF3003E00449C989018000207047024950
:100C5000097C01700020704700000020F0B587B0CB
:100C600005000E00140001208DF8000000208DF812
:100C7000010000AB0222DFF8140C0068817CDFF871
:100C80000C0C4068007801F0F3F8002802D05FF007
:100C9000FF302EE2C82001F03FF900208DF800005F
:100CA00000AB0122DFF8E40B0068C17BDFF8DC0B4E
:100CB0004068007801F0DCF8002802D05FF0FF30D7
:100CC00017E200AB0122DFF8C40B00684179DFF8BE
:100CD000BC0B4068007801F0CBF8002802D05FF030
:100CE000FF3006E200AB0122DFF8A00B0068817C38
:100CF000DFF8980B4068007801F0BAF8002802D0BD
:100D00005FF0FF30F5E100AB0122DFF8800B0068F7
:100D1000C17DDFF8780B4068007801F0A9F8002861
:100D200002D05FF0FF30E4E100AB0122DFF85C0BA2
:100D300000680179DFF8540B4068007801F098F8FA
:100D4000002802D05FF0FF30D3E10C208DF80000C6
:100D500000AB0122DFF8340B00680179DFF82C0BBF
:100D60004068007801F084F8002802D05FF0FF307E
:100D7000BFE10F2001F0D0F8DFF8100B806A407A55
:100D80008DF8000000AB0122DFF8000B00688178CD
:100D9000DFF8F80A4068007801F06AF8002802D00D
:100DA0005FF0FF30A5E1DFF8E40A806A007A8DF891
:100DB000000000AB0122DFF8D40A00684178DFF8B8
:100DC000CC0A4068007801F053F8002802D05FF0A8
:100DD000FF308EE1E4B2002C08D0DFF8B00A806A60
:100DE000807A50F0E0008DF8000005E0DFF89C0A02
:100DF000806A807A8DF8000000AB0122DFF88C0A4F
:100E000000688179DFF8840A4068007801F030F8E2
:100E1000002802D05FF0FF306BE1E4B2002C08D074
:100E2000DFF8680A806AC07A50F0E0008DF80000B0
:100E300004E0DFF8100DC07A8DF8000000AB01224D
:100E4000DFF8480A0068C179DFF8400A4068007896
:100E500001F00EF8002802D05FF0FF3049E1E4B263
:100E6000002C02D0C82001F057F840208DF8000077
:100E700000AB0122DFF8140A00680179DFF80C0AE0
:100E80004068007800F0F4FF002802D05FF0FF30E7
:100E90002FE178208DF8000000AB0122DFF8EC098B
:100EA00000684179DFF8E4094068007800F0E0FF6D
:100EB000002802D05FF0FF301BE1DFF8880C80894A
:100EC00001F02AF800208DF8000000AB0122DFF8C5
:100ED000BC0900684179DFF8B4094068007800F087
:100EE000C7FF002802D05FF0FF3002E100AB022212
:100EF000DFF898090068817ADFF890094068007887
:100F000000F0D4FF002802D05FF0FF30F1E09DF840
:100F100000009DF8011051EA002080B20C2190FBE6
:100F2000F1F40020A860686028600020B060706064
:100F3000306000274EE09DF800009DF8011051EA56
:100F40000020ADF814009DF802009DF8031051EA4E
:100F50000020ADF816009DF804009DF8051051EA38
:100F60000020ADF818003068BDF914100818306082
:100F70007068BDF9161008187060B068BDF91810D7
:100F80000818B0609DF806009DF8071051EA00208F
:100F9000ADF80C009DF808009DF8091051EA0020FA
:100FA000ADF80E009DF80A009DF80B1051EA0020E4
:100FB000ADF810002868BDF90C10081828606868A2
:100FC000BDF90E1008186860A868BDF9101008185F
:100FD000A8607F1CFFB2E4B2A74210D200AB0C2283
:100FE000DFF8A8080068C17ADFF8A0084068007838
:100FF00000F05CFF00289ED05FF0FF3079E02868A9
:10100000C117090441EA10410004DFF8382B1268C7
:10101000002300F08DFFE4B22200002300F088FFDF
:1010200028606868C117090441EA10410004DFF82C
:10103000142B1268002300F07BFFE4B2220000238F
:1010400000F076FF6860A868C117090441EA104102
:101050000004DFF8F02A1268002300F069FFE4B210
:101060002200002300F064FFA8603068C117090463
:1010700041EA10410004DFF8CC2A5268002300F056
:1010800057FFE4B22200002300F052FF3060706886
:10109000C117090441EA104100040FF6FC2252680E
:1010A000002300F045FFE4B22200002300F040FFDF
:1010B0007060B068C117090441EA104100040FF6DE
:1010C000D8225268002300F033FFE4B2220000234C
:1010D00000F02EFFB060B068012805DBB068DFF8D3
:1010E000681A0818B06003E0B06810F58030B0608E
:1010F000002007B0F0BD30B583B0040000AB04227F
:101100000D21DFF888074068007800F0CFFE002846
:1011100001D0072051E09DF80000C0B2C00810F0D7
:101120001C009DF80310C1F3011108438DF8040061
:101130009DF80100C0B2C00810F01C009DF803101B
:10114000C1F3810108438DF805009DF80200C0B28B
:10115000C00810F01C009DF8031011F003010843B3
:101160008DF80600002514E0EDB254F82500DFF8F4
:10117000DC1900F08BFFEDB244F82500EDB201A8B8
:10118000285C401EEDB201A96854C0B20028EBD122
:101190006D1CEDB2032D0FD2EDB201A8285C002822
:1011A00004D1EDB2002044F82500F1E7EDB2DFF8FC
:1011B000A00944F82500E1E700203EBDDFF8CC1689
:1011C000097A002905D002290CD007D303290DD0B4
:1011D00010E0DFF88019016000207047DFF878190F
:1011E0000160F9E7DFF874190160F5E7DFF87019BD
:1011F0000160F1E75FF0FF30EFE7DFF89016497A22
:10120000002905D0022915D010D3032916D019E0E2
:101210004FF480410180DFF87416C97C002903D0A7
:10122000018889B2490801800020704741F69C710D
:101230000180F0E74FF480510180ECE74FF400614A
:101240000180E8E75FF0FF30EFE72DE9FE438146DC
:101250008846002600A8FFF74EFF002711E0100087
:101260000FF63411C96900F07DFF06D30FF6281080
:10127000006A110000F076FF02D20120B840064358
:101280007F1C032F34DA59F8270058F82710401A2A
:1012900000F07AFF00F07CFF5FF08F4100F090FFDC
:1012A000020000A850F82700002101F007F8D6D06E
:1012B000100000A951F8271000F082FFDFF8A418F1
:1012C00001F00AF801F05AF831F0004102000B0079
:1012D00014001D000FF6C000406A01F04FF8220014
:1012E0002B0001F073F8CBD20120B8400643C7E7CA
:1012F0003000BDE8FE830000100000202DE9F84317
:1013000081468846002600AB03220D21DFF87C05CC
:101310004068007800F0CAFD002801D0072070E086
:101320009DF8000010F01F008DF800009DF80100EE
:1013300010F01F008DF801009DF8020010F01F0052
:101340008DF80200002711E020000FF64C0109691A
:1013500000F008FF06D30FF640004069210000F0BE
:1013600001FF02D20120B84006437F1C032F47DA59
:1013700059F8270058F82710401A00F005FF00F030
:1013800007FF5FF08F4100F01BFF040000A8385CEE
:101390000028D9D00FF60000006800F003FF01001C
:1013A000DFF8C40700F00CFF010004E0DFF8BC0721
:1013B00000F06CFE010000A8385C401E00AAB85482
:1013C000C0B20028F2D1200000F0FAFEDFF8941736
:1013D00000F082FF00F0D2FF31F0004102000B006C
:1013E00014001D000FF2B070806900F0C7FF2200EA
:1013F0002B0000F0EBFFB8D20120B8400643B4E761
:101400003000BDE8F2832DE9F04389B004000D00FF
:101410000226DFF8780490F82400002804D0002089
:10142000FFF75CFB012700E000270DF10600FFF746
:101430009FFB0DF10100FFF7B8FB0DF10200FFF774
:10144000D5FB01A8FFF7F6FBDFF8400490F80A800F
:1014500000A8FFF7FCFB5FF0000901E019F10109AA
:10146000F6B2B14506DA002229002000FFF7F6FBAC
:101470000028F3D1F6B2B14501D1002427E05FF096
:10148000000901E019F10109F6B2B14506DA0122BD
:1014900002A905A8FFF7E2FB0028F3D1F6B2B14597
:1014A00001D1002413E002A92800FFF7CEFE0500B9
:1014B00005A92000FFF722FF0024C0B2002801D1B7
:1014C00054F00104EDB2002D01D154F00204DFF814
:1014D000BC03FF210172DFF8B403FF214172DFF882
:1014E000AC03FF21C172DFF8A4034FF6FF71C18185
:1014F000DFF89803FF218172DFF89003FF21017468
:10150000DFF8880301210173BDF80600FEF7EEFD48
:101510009DF80100FEF737FEBDF80200FEF77DFEE4
:10152000BDF80400FFF745F94046C0B2FFF762FA84
:101530009DF80000FFF777F8FFB2002F02D00120DE
:10154000FFF7CCFA200009B0BDE8F08300B589B000
:1015500002A905A8FFF757FF032835D101A8FFF717
:101560002DFE059800F014FE019900F08FFD00F0AB
:1015700045FF0590069800F00BFE019900F086FDEE
:1015800000F03CFF0690079800F002FE019900F081
:101590007DFD00F033FF079005A801F004F800A8D6
:1015A000FFF72BFE0298BDF8001048430290039805
:1015B000BDF80010484303900498BDF8001048435C
:1015C000049002A801F092F809B000BD38B50C00F3
:1015D0001500002D02D15FF0FF3038E0AB49897A69
:1015E000002902D15FF0FF3031E080B2010A8DF8AE
:1015F00000108DF80100A548406840899DF8011051
:10160000A4B26118884202DA5FF0FF301FE000AB3D
:1016100002229E480068017E9C484068007800F0E5
:1016200027FC002802D05FF0FF3010E02B002200E2
:10163000D2B296480068417D94484068007800F036
:1016400017FC002802D05FF0FF3000E0002032BD20
:1016500038B50C001500002D02D15FF0FF3038E0E6
:101660008A49897A002902D15FF0FF3031E080B2E7
:10167000010A8DF800108DF8010084484068408907
:101680009DF80110A4B26118884202DA5FF0FF30C1
:101690001FE000AB02227D480068017E7B48406865
:1016A000007800F0E5FB002802D05FF0FF3010E08A
:1016B0002B002200D2B275480068417D7348406813
:1016C000007800F0F3FB002802D05FF0FF3000E06C
:1016D000002032BDF8B504000D0016006B4890F8EC
:1016E0002400002802D15FF0FF305BE06748807A79
:1016F000002802D15FF0FF3054E000AB02226348C3
:101700000068817A61484068007800F0CFFB0028CB
:1017100002D05FF0FF3045E09DF800009DF8011019
:1017200051EA0027BFB2A4B2A74204D20020307011
:101730005FF0FF3036E055484068408880B240088E
:10174000BFB2B84217D200AB012250480068417CBA
:101750004E484068007800F0A9FB002802D05FF0F6
:10176000FF301FE09DF80000C00604D5FEF745FEDF
:101770007FF0010016E02B002200D2B2434800683F
:10178000C17A42484068007800F090FB002802D0FF
:101790005FF0FF3006E0BFB2A4B297FBF4F0401E4A
:1017A00030700020F2BD2DE9F04385B006000F0037
:1017B00014001D00354890F82500002802D05FF085
:1017C000FF3060E0002F02D15FF0FF305BE05FF0A0
:1017D000000801E019EB08081FFA88F8B6B2B04516
:1017E00035D2B6B21FFA88F8B6EB0800112802DB32
:1017F0005FF0100901E0B6EB08091FFA88F818EB52
:101800000702494689B2404680B2FFF7DFFE002852
:1018100002D05FF0FF3036E001AA494689B2404667
:1018200080B2FFF715FF002802D05FF0FF302AE0FA
:101830001FFA89F94A4601A91FFA88F818EB070030
:1018400002F036FA0028C5D07FF001001BE0A4B2F8
:10185000200A8DF800008DF8014000AB02220B48F1
:101860000068817E09484068007800F001FB00288C
:1018700002D05FF0FF3006E00448012180F8251017
:101880000248C584002005B0BDE8F08300000020B8
:1018900090F90010012901DB00201EE090F90010F2
:1018A000002901D5042018E090F90110012901DB7D
:1018B000012012E090F90110002901D505200CE06B
:1018C00090F90210012901DB022006E090F90200E4
:1018D000002801D5062000E0072080B2704738B507
:1018E00004002000FFF7D4FF0500E01CFFF7D0FF45
:1018F00055EAC005A01DFFF7CBFF55EA801528006B
:1019000080B232BD00B583B000AB012298480068B8
:10191000017897484068007800F0C8FA002801D0A4
:101920000120E2E09DF80000682801D00220DCE000
:1019300080208DF8000000AB01228D480068817C7A
:101940008B484068007800F093FA002801D003200B
:10195000CBE0642000F0E0FA00208DF8000000AB3E
:10196000012283480068817C81484068007800F04B
:101970007FFA002801D00420B7E000AB06227C48A3
:101980000068817D7A484068007800F08FFA00286E
:1019900001D00520A9E09DF8050010F001009DF898
:1019A000031011F00101490051EA80009DF8011077
:1019B00011F001010843C0B200280FD0C0B20128C5
:1019C00003D16B480121C17429E0C0B2022803D1C0
:1019D00067480021C17422E0062086E000AB0122A6
:1019E00063480068C17862484068007800F05EFA99
:1019F000002801D0072078E09DF8000010F00F00CB
:101A0000C0B2002801D105206FE0C0B2042803D184
:101A100057480121C17402E055480021C17454485F
:101A2000FF2181725248FF2101725148FF2141720A
:101A30004F48FF21C1724E484FF6FF71C1814C489B
:101A4000FF2101744A48FF21817449480121017333
:101A50004748012180F822104548002180F82310D2
:101A60004348002141754248002101750C220021A4
:101A7000404802F04EF93E48002180F824103C48CE
:101A8000002180F825103A480021C1844FF4FA6003
:101A9000FEF72CFB002801D0102026E00220FEF7E4
:101AA00072FB002801D011201FE02A20FEF7B5FBB1
:101AB000002801D0122018E03220FEF77AFE00281C
:101AC00001D0132011E00020FEF7ADFD002801D069
:101AD00014200AE00020FEF7CCFE002801D01520DB
:101AE00003E00020FEF786FF00200EBD2DE9F04741
:101AF000FFF708FF7820FEF77DFF04007820FEF74F
:101B000092FD05006420FEF754FE060000F098FCEC
:101B100007001948FFF7E3FE80B200F09DFC804605
:101B200040F2731001F011F88146642000F07FFE4E
:101B30008246FFF70BFD0120FEF7D0FF01000020D9
:101B4000BDE8F087981B00000000FFFF1D5A843F8E
:101B50007B14AE3E00000343000083423333034254
:101B600033338341000080BF00B04C4554E3853FD0
:101B700000000020160000202C00002075191A0C0F
:101B80006A231B1C1F207274433B4138393A6B6C2B
:101B9000376F06246D6E700083000000000800009F
:101BA0000001001832000500000020410000D24270
:101BB000295C0F3E9A99993E3333733F295C0F3E5F
:101BC0006800000476005401F7FD000180B5012192
:101BD000042002F0A9F83020ADF8000002208DF8B2
:101BE000020010208DF8030000A9DFF87C0202F04B
:101BF000E3F81021DFF8700202F04FF92021DFF83E
:101C0000680202F04AF9DFF8640200F001F801BD51
:101C1000401E0028FCD1704780B52021DFF8480223
:101C200002F03BF90A20FFF7F3FF1021DFF838023A
:101C300002F033F90A20FFF7EBFF2021DFF828023A
:101C400002F020F9002801D1012019E02021DFF85D
:101C5000180202F025F90A20FFF7DAFF1021DFF859
:101C6000080202F01DF90A20FFF7D2FF2021DFF859
:101C7000F80102F007F9002801D0022000E000205E
:101C800002BD80B52021DFF8E00102F009F90A2049
:101C9000FFF7BEFF1021DFF8D00102F0FEF80A20A6
:101CA000FFF7B6FF2021DFF8C00102F0F6F80A20A6
:101CB000FFF7AEFF01BD80B52021DFF8AC0102F0D7
:101CC000EFF80A20FFF7A4FF1021DFF89C0102F0D3
:101CD000E4F80A20FFF79CFF1021DFF88C0102F0E6
:101CE000DFF80A20FFF794FF01BD80B52021DFF85F
:101CF000780102F0D2F80A20FFF78AFF1021DFF8FE
:101D0000680102F0CAF80A20FFF782FF1021DFF80D
:101D1000580102F0C5F80A20FFF77AFF01BD38B577
:101D200004001021DFF8400102F0BAF8002518E0A5
:101D30002021DFF8340102F0B3F864000A20FFF735
:101D400067FF1021DFF8200102F0A7F80A20FFF753
:101D50005FFF1021444802F0A3F80A20FFF758FF64
:101D60006D1CEDB2082D06D22006E1D520213E489B
:101D700002F093F8E1E720213B4802F08EF80A20B8
:101D8000FFF746FF1021384802F087F80A20FFF7D6
:101D90003FFF2021344802F075F8002805D01021BB
:101DA000314802F07DF8002004E010212E4802F0B6
:101DB00077F8012032BD38B520212B4802F06DF8AC
:101DC0001021294802F06CF80025002417E01021AA
:101DD000254802F062F80A20FFF71AFF6D00202163
:101DE000214802F04FF8002801D055F001051021DC
:101DF0001D4802F055F80A20FFF70AFF641CE4B200
:101E0000082CE4D3FFF771FF2800C0B232BD38B50B
:101E10002021154802F041F81021134802F040F843
:101E20000025002417E010210F4802F036F80A20A0
:101E3000FFF7EEFE6D0020210B4802F023F800288A
:101E400001D055F001051021074802F029F80A20B9
:101E5000FFF7DEFE641CE4B2082CE4D3FFF72BFF8F
:101E60002800C0B232BD000000080140A086010079
:101E7000F8B504000D0016001F00FFF7CDFE60004E
:101E8000C0B2FFF74CFF2800C0B2FFF748FF0024A4
:101E900004E0E4B2E05DFFF742FF641CE4B2F6B296
:101EA000B442F6D3FFF7EDFE0020F2BDF8B5040012
:101EB0000D0016001F00FFF7AFFE6000C0B2FFF775
:101EC0002EFF2800C0B2FFF72AFFFFF7A5FE600033
:101ED00050F00100C0B2FFF722FF04E0FFF797FFC8
:101EE00038707F1C761EF6B2002E06D0F6B2012E98
:101EF000F4D1FFF760FF3870F3E7FFF7C2FE002070
:101F0000F2BD0100481E002905D00021C9B20A29EE
:101F1000F7D2491CFAE7704710B5040003E04FF40C
:101F20007A70FFF7EEFF2000441E0028F7D110BDA5
:101F300013F0004C03D55B42524263F100039CEA6C
:101F4000210C15D11B4229D109424CD12AB184461A
:101F5000B0FBF2F002FB10C2704701F0A5BFFCD34A
:101F60000022002370470B00020000210020704770
:101F700010B5644603D34942404261F10001FFF7C6
:101F8000E1FF640004D34942404261F10001244270
:101F900003D55B42524263F1000310BD904271EBE6
:101FA000030CE0D370B5B1FA81F4B3FA83F52C1BBE
:101FB000A340C4F1200532FA05F63343A2405FF096
:101FC0000046E64002E05B085FEA3202841A71EBE9
:101FD000030524BF204629467641F4D302000B00B6
:101FE0003000002170BD012AB9D970B5140C20D081
:101FF000B1FA81F4B2FA82F5C4F120046419B4F1A3
:102000002006D6D3B2405FF00044F440002502E041
:1020100052085FEA3303C61A71EB020E24BF304642
:10202000714664416D41F3D302000B00200029008A
:1020300070BD0C46B1FBF2F102FB11452D0445EADF
:102040001045B5FBF2F402FB145580B240EA054599
:10205000B5FBF2F002FB105240EA044070BD10B430
:1020600050F8041B81B102681218001D50F8043B9F
:10207000DC0744BFA9F10104E31852F8044B43F80C
:10208000044B091FF9D1EBE710BC7047FF2212EA9D
:10209000D05C1DBF12EAD153944593422BE09C447F
:1020A000D30780EA01021A4043EA002043EA0121F3
:1020B000A1FB0030410038BF40007CF17F010BDB09
:1020C000FE294ADA5B0842EAC15153EA006373F120
:1020D000004C51EB10207047D1F1080CDCF12001CD
:1020E0002FDB5B0810FA01F10B4373F1004120FA7A
:1020F0000CF05041704794451CBF02EAD153934203
:1021000080EA010202F000421DD0400019D04900CF
:1021100017D05BB9634514D00902B1FA81F3994035
:10212000BCEB030CC00140F00040C1E70002B0FA74
:1021300080FC10FA0CF0B3EB0C0CC90141F000412B
:10214000B6E71000704740000AD0490008D010F1EF
:10215000807F94BF11F1807F02E042F0FF40704722
:10216000D04370474FF0807C1CEB400F94BF1CEBBA
:10217000410F05E040EA010C5FEA4C0C01D28842B5
:10218000704718BF81427047002848BF40427047DF
:10219000002840F10880F446404200F004F850F076
:1021A0000040604700280AD0B0FA80F18840D1F1A1
:1021B0009D01C905020672F1004241EB10207047F3
:1021C00010B5FF2313EAD0541DBF13EAD1529C422D
:1021D0009A4239E0A41ADA0780EA0103134042EA7E
:1021E000012142EA0020421A3CBF641E01EB420278
:1021F000090AB2FBF1FE01FB1E221202B2FBF1F052
:1022000001FB10226EF30F201202B2FBF1FE4EEA28
:1022100000207F3406DDFE2C24DA53EA500050EB18
:10222000C45010BDD4F1020401FB1E2240F08071A5
:10223000192C1DDC21FA04F0C4F12004A140114343
:1022400071F10042584110BD9C421ABF03EAD152BD
:102250009A420FE080EA010E0EF00043400004D0E5
:10226000490016D143F0FF4010BD490008BFD343D9
:10227000180010BD9C4205D1D21AF7D001F00041E0
:10228000484010BD4A0212BF0846484000F00040D6
:1022900010BD4AB90902B1FA81F2914044B1A418C3
:1022A000C00140F000409EE7C90141F000415242A8
:1022B0000002B0FA80F4A040141B94E740EA010C3D
:1022C0005FEA4C0C07D0884205D14FEA400C1CF164
:1022D000807F98BF8042704790EA010F44BF81F031
:1022E000004101F0EABD421A3CBF801A89184FF044
:1022F000004CC0F3C752FF2A24D0C1F3C75313B315
:10230000D21AD2F1190327DD4CEA01214CFA03F36A
:1023100021EA0303D140C20D4CEA0020401834BF2B
:1023200020EA0C004CEA5000D20553EA006373EB3C
:102330000C0C52EB1020420012F1807F38BF704726
:10234000C00DC0057047490212BF9A4200EB5120F0
:10235000F8E7D2F11703D9D5704750F8041B61B1E3
:1023600050F8042BD30744BFA9F101039A180023A6
:1023700042F8043B091FFAD1EFE770475FF0FF0C0A
:102380001CEAD05114BF614506E0C110400721F09E
:10239000E04101F16051704779B900F0004100025D
:1023A0000AD0B0FA80FC00FA0CF001F16051A1EB08
:1023B0000C5101EBD0214005704741020CBF40F4A5
:1023C000E0016FF000010020704700004FF4001C96
:1023D0001CEB410F94BF1CEB430F09E041EA030CD7
:1023E00050EA4C0C52EA0C0C03D2994208BF9042BE
:1023F000704714BF8B428242704700004100090EB3
:102400007F3915D4D1F11F0114D4400007D2C00187
:1024100040F00040C84048BF6FF000407047C00126
:1024200040F00040C8404CBF4FF000404042704771
:102430000020704700424FF0004058BFC043704733
:1024400080B5C8230FF66C4002880FF66C4140F649
:10245000F630FFF7A8F902BD10B586B0040003A856
:102460000FF61C410A68026002A80FF618410A68BC
:10247000026005A80FF610410A68026004A80FF672
:102480000C410A680260A4B214F0030003A9405C86
:102490008DF80400C4F3C10080B203A9405C8DF83C
:1024A0000500C4F3811080B203A9405C8DF80600DA
:1024B000A4B214F0030002A9405C8DF80000C4F33C
:1024C000C10080B202A9405C8DF80100C4F3811004
:1024D00080B202A9405C8DF8020001AA032140F2FB
:1024E0002640FFF773F8002802D05FF0FF3058E075
:1024F00000AA032140F22A40FFF768F8002802D022
:102500005FF0FF304DE0032205A901A801F03FFD77
:10251000032204A900A801F03AFD60070BD59DF83D
:10252000040050F001008DF804009DF8000050F008
:1025300001008DF80000A0060BD59DF8050050F0B5
:1025400001008DF805009DF8010050F001008DF8A4
:102550000100E0050BD59DF8060050F001008DF854
:1025600006009DF8020050F001008DF8020001AA5B
:1025700003214FF48860FFF729F8002802D05FF0AC
:10258000FF300EE000AA032140F23140FFF71EF8B1
:10259000002802D05FF0FF3003E0DFF8C80A0481B2
:1025A000002006B010BD00B585B0DFF8B81A097A72
:1025B00011F0030150F821100191DFF8A81A097AEF
:1025C000490704D501995FF0FF3251430191DFF8CB
:1025D000941A0989C1F3C10189B250F821100291FE
:1025E000DFF8801A097A890604D502995FF0FF3274
:1025F00051430291DFF86C1A0989C1F3811189B244
:1026000050F821000390DFF85C0A0089C00504D56A
:1026100003985FF0FF31484303900198DFF8481AB0
:1026200081FB0001800F40EA810089170190029828
:10263000DFF8341A81FB0001800F40EA810089171E
:1026400002900398DFF8201A81FB0001800F40EA16
:10265000810089170390019800168DF800000198F9
:1026600000148DF80100019800128DF80200019805
:102670008DF8030000AA04214FF47470FEF7A6FF42
:10268000002802D05FF0FF302EE0029800168DF88F
:102690000000029800148DF80100029800128DF8D5
:1026A000020002988DF8030000AA04214FF475700F
:1026B000FEF78CFF002802D05FF0FF3014E0039893
:1026C00000168DF80000039800148DF8010003989F
:1026D00000128DF8020003988DF8030000AA04216F
:1026E0004FF47670FEF772FF05B000BD30B587B0CD
:1026F000040006A8FEF781FDBDF818200023DB03C7
:1027000043EA5243D203DFF85C09007A10F0030079
:1027100054F820000090DFF84C09007A400704D5F7
:1027200000985FF0FF3148430090DFF838090089D6
:10273000C0F3C10080B254F820000190DFF82409F2
:10274000007A800604D501985FF0FF31484301907C
:10275000DFF810090089C0F3811080B254F820001E
:102760000290DFF800090089C00504D502985FF0E7
:10277000FF3148430290009CE517A2FB040102FBD5
:10278000051103FB0411800F40EA810089170090B6
:10279000019CE517A2FB040102FB051103FB0411D8
:1027A000800F40EA8100891701900298C117A2FBAF
:1027B000004502FB015503FB0055A40F44EA8504C4
:1027C000AD170294009800168DF80C0000980014C4
:1027D0008DF80D00009800128DF80E0000988DF80D
:1027E0000F00019800168DF81000019800148DF864
:1027F0001100019800128DF8120001988DF8130055
:10280000029800168DF81400029800148DF8150037
:10281000029800128DF8160002988DF8170003AA8E
:102820000C214FF42570FEF7D1FE07B030BD30B556
:1028300085B0040002A80FF658012CC92CC00C3931
:102840000C38A4B2C92C02D35FF0FF3024E0C820BA
:10285000A4B290FBF4F0401E80B2010A8DF8001083
:102860008DF8010000AA022140F21620FEF7AEFE0C
:10287000002802D05FF0FF300EE002AA0C2140F6E3
:10288000C120FEF7A3FE002802D05FF0FF3003E076
:10289000DFF8D0078481002005B030BD7CB504008E
:1028A000080007210C4204D040F2416180B2884206
:1028B00002D35FF0FF30AFE080B2FFF773FCDFF8C8
:1028C000AC17FFF77DFC050001A8FEF76EF99DF837
:1028D0000400022806D004282CD008283AD010285A
:1028E00048D057E05FF08D402900FFF7CFFBFFF79E
:1028F00085FD0600DFF878072900FFF7C7FBFFF723
:102900007DFDB6B2310A8DF800108DF8016080B2FD
:10291000010A8DF802108DF80300E00749D500AADE
:1029200002214FF4EA70FEF751FE002835D05FF027
:10293000FF3071E05FF08C402900FFF7A7FBFFF745
:102940005DFD0600DFF82C072900FFF79FFBFFF76E
:1029500055FDD6E75FF08B402900FFF797FBFFF7A7
:102960004DFD0600DFF810072900FFF78FFBFFF78A
:1029700045FDC6E75FF08A402900FFF787FBFFF7B8
:102980003DFD0600DFF8F4062900FFF77FFBFFF7A7
:1029900035FDB6E75FF0FF303EE00DF102020221A7
:1029A0004FF49270FEF712FE002802D05FF0FF3065
:1029B00032E0A00716D500AA02214FF4EC70FEF712
:1029C00005FE002802D05FF0FF3025E00DF1020285
:1029D00002214FF49470FEF7F9FD002802D05FF059
:1029E000FF3019E0600716D500AA02214FF4EE70FF
:1029F000FEF7ECFD002802D05FF0FF300CE00DF197
:102A0000020202214FF49670FEF7E0FD002802D08A
:102A10005FF0FF3000E0002076BD80B500218DF82A
:102A20000010C10705D59DF8001051F030018DF858
:102A30000010810705D59DF8001051F00C018DF8AC
:102A40000010400705D59DF8000050F003008DF8F8
:102A5000000000AA01214FF4A470FEF7B7FD02BDEB
:102A600080B5C0B2012801D2012003E0C0B2052820
:102A700000D30420401E8DF8000000AA012140F27E
:102A80004F10FEF7A3FD02BD80B580B2052190FB7B
:102A9000F1F080B2010A8DF800108DF8010000AA53
:102AA00002214FF4EF70FEF791FD02BD80B580B2B8
:102AB000052190FBF1F080B2010A8DF800108DF82D
:102AC000010000AA02214FF4ED70FEF77FFD02BD68
:102AD00080B54FF47A7290FBF2F089B24843011648
:102AE0008DF8001001148DF8011001128DF80210FC
:102AF0008DF8030000AA04214FF4AE70FEF766FDC6
:102B000002BD80B580B2052190FBF1F080B2010AD0
:102B10008DF800108DF8010000AA02214FF4AD706D
:102B2000FEF754FD02BD80B580B2052190FBF1F0A7
:102B300080B2010A8DF800108DF8010000AA022170
:102B40004FF4AC70FEF742FD02BD10B584B0040036
:102B500002208DF80000CA208DF80100E3208DF8D6
:102B6000020009208DF8030000AA04216820FEF766
:102B70002DFDA3208DF80000600609D5C0208DF83A
:102B80000100C8208DF80200C2208DF8030008E083
:102B9000A3208DF80100A3208DF80200A3208DF85A
:102BA00003004FF4C070044209D0C4208DF8040023
:102BB000CC208DF80500C6208DF8060008E0A32083
:102BC0008DF80400A3208DF80500A3208DF80600E1
:102BD000A3208DF80700A3208DF80800A3208DF80E
:102BE000090000AA0A2140F6A720FEF7EFFC032007
:102BF000044203D020208DF8000002E0D8208DF898
:102C0000000000AA012140F6B620FEF7DFFCA00676
:102C100003D5012000F0ACF802E0002000F0A8F895
:102C20004FF4C070044220D0E0050CD5B2208DF8DE
:102C300000008B208DF80100B6208DF802009B204B
:102C40008DF803000BE0B0208DF8000080208DF897
:102C50000100B4208DF8020090208DF8030000AA36
:102C6000042140F6A220FEF7B1FCE00725D5F820AC
:102C70008DF8000000AA01214FF40B60FEF7A6FCBE
:102C8000FA210720FFF70AFE0720FFF7C6FE012002
:102C9000FFF7E6FE6420FFF7F7FE4FF4FA70FFF748
:102CA00005FFC821DFF8C003FFF712FF2820FFF758
:102CB00028FF0A20FFF737FF08E0D8208DF8000032
:102CC00000AA01214FF40B60FEF780FCA00703D59A
:102CD000D9208DF8000002E0D8208DF8000000AA6D
:102CE000012140F23D70FEF771FC600703D5012021
:102CF00000F060F802E0002000F05CF8E00603D588
:102D0000012000F076F802E0002000F072F8DFF811
:102D1000540354F008014181FDF76FFBDFF84403D1
:102D200000218173600606D5DFF83803807B801DA3
:102D3000DFF8301388734FF4C070044205D0DFF819
:102D40002403807B801DC74988731420044204D06B
:102D5000C448807B1030C34988730320044204D0E8
:102D6000C048807B001DBF498873002004B010BD9F
:102D700010B586B0C0B200280DD003A80FF21C31E8
:102D80001CC91CC00C390C3803AA09214FF49760E8
:102D9000FEF71CFC0CE000A80FF20C311CC91CC093
:102DA0000C390C3800AA09214FF49760FEF70EFC8D
:102DB00006B010BD80B5C0B200280CD0C0208DF880
:102DC0000000C2208DF80100C4208DF80200C6204A
:102DD0008DF8030004E004228B2100A800F099FF85
:102DE00000AA042140F69820FEF7F0FBFDF705FB52
:102DF00002BD80B5C0B200280CD020208DF80000A4
:102E000028208DF8010030208DF8020038208DF840
:102E1000030004E00422A32100A800F07AFF00AA26
:102E2000042140F69E20FEF7D1FBFDF7E6FA02BD35
:102E300038B50400E07810F0C005E07810F03F01EC
:102E40006078C00711D5C9B2C808C9B2082291FB81
:102E5000F2F303FB1213591C824A1268002A04D0B1
:102E6000C9B2C0B27F4A126890476078000708D59F
:102E70007C484068002804D0EDB2A8097949496827
:102E80008847002032BD2DE9F0418CB004000D00D0
:102E90009046129E139A00270020308000A97148A6
:102EA000807B80B2FEF716FC002802D05FF0FF3076
:102EB000D4E06C48807A1421084270D09DF800005C
:102EC0009DF80110090451EA00609DF8021050EAD3
:102ED00001209DF803100843C8F800009DF8040085
:102EE0009DF80510090451EA00609DF8061050EAAB
:102EF00001209DF807100843C8F804009DF8080059
:102F00009DF80910090451EA00609DF80A1050EA82
:102F100001209DF80B100843C8F808009DF80C002C
:102F20009DF80D10090451EA00609DF80E1050EA5A
:102F300001209DF80F100843C8F80C001037D8F88E
:102F4000000000140890D8F8040000140990D8F884
:102F5000080000140A90D8F80C0000140B90089890
:102F60000899099A099B5A4301FB00200A990A9A79
:102F700002FB01000B990B9A02FB0100B0F170609B
:102F8000B0F1007F06D9FDF738FA002030805FF0FD
:102F9000FF3063E030884FF480710843308031485F
:102FA000807A400624D5FFB200A8385CFFB200A9A1
:102FB0007918497851EA00202880FFB200A8381813
:102FC0008078FFB200A97918C97851EA002068809A
:102FD000FFB200A838180079FFB200A97918497922
:102FE00051EA0020A880BF1D308850F008003080D2
:102FF0001C4840894FF4C071084224D0FFB200A899
:10300000385CFFB200A97918497851EA0020208085
:10301000FFB200A838188078FFB200A97918C978E3
:1030200051EA00206080FFB200A838180079FFB292
:1030300000A97918497951EA0020A080BF1D308885
:1030400050F0700030800748807A0321084204D095
:10305000FFB200A83818FFF7EBFE00200CB0BDE867
:10306000F08100003C00002009E3CA020000484350
:10307000000040460000C045000040450000C0443C
:103080004CCD6C000CC92C003656760026466600E6
:10309000FEF2ABC4AAF1DFDFBBAFDFDFB8AAB38DAE
:1030A000B4980D355D000000B8AAAAAAB088C3C5BF
:1030B000C7000000000400000000700000000024B1
:1030C000000000020003000000650054FFEF000054
:1030D000FA80000B12820001030C30C30E8C8CE9C5
:1030E00014D5400213710F8E3883F8833000F883B3
:1030F000258EF8833000F883FFFFFFFF0FFEA9D66F
:10310000240004001A8279A10000003CFFFF0000A7
:103110000010000038836FA2003E03304000000022
:1031200002CAE3093E800000200000000000000009
:103130004000000060000000000C0000000C186E51
:10314000000006920A16C0DFFFFF0256FD8CD377FF
:10315000FFE1C496E0C5BEAA00000000FFFF0B2BF4
:1031600000001657000003594000000000001DFA3F
:1031700000026C1D000000003FFFDFEB003EB3B615
:10318000000D227800002F3C00000000001942B51D
:10319000000039A20000B365D90E9FC91DCF4C3481
:1031A00030000000500000003BB67AE800640000E8
:1031B00000C8000000000000100000001000FA929B
:1031C0001000225E000D229F00010000003200006E
:1031D000FF46000063D400001000000004D6000089
:1031E00004CC000004CC000000001072000000407D
:1031F00000000000000000000006000200050007BB
:103200000000000000640000000000000000000555
:103210000005006400200000000000000000000025
:10322000000040000000030000000032F898000099
:10323000FF650000830F0000FF9BFC000000000002
:10324000000000000000000000000000000000007E
:10325000000000000000000000000000000000006E
:103260000000000000001000400000000000000608
:103270000000B26A000200000001FB830068000049
:1032800000D9FC007CF1FF83000000000065000015
:10329000006403E80064002800000025000000002E
:1032A00016A000000000100000001000002F000019
:1032B000000001F40000100000280000FFFF45811D
:1032C000FFFFFA720000000000000000004400054B
:1032D0000005BAC6004778A2000000010000000007
:1032E00000000600000000140000254D002F706D46
:1032F000000005AE000C02D000000000000000003D
:103300000000000000000000001B000000000000A2
:103310000000000000000000006400000008000041
:10332000000000000000000000000000000000009D
:10333000000000000000000000000000000000008D
:10334000000000000000000000000000000000007D
:10335000000000000000000000000000000000006D
:10336000000000000000000000000000000000005D
:103370000000000000000000001B00000000000032
:1033800000000000000E000E00000AC7000400004C
:1033900000000032FFFFFF9C00000B2B000000022A
:1033A0000000000100000064FFE5000000000000D4
:1033B000000000000000000000000001000000000C
:1033C00000010000000000000001800000018000FA
:1033D00000018000002426D300000000000000004F
:1033E000000600100096003C0000000000000000F5
:1033F00000000000000000000C0A4E68CDCF7709E5
:1034000050166759C619CE82000000000000000067
:1034100000000000000000000000000000000000AC
:1034200017D7840003000000000000000000000027
:10343000C7938F9D1E1B1C19000000000000000098
:10344000000000000000000000000000000000007C
:103450000203188500004000000000030000000384
:10346000000000000000000040000000000000001C
:10347000000000000000000000000000000000004C
:10348000000000000000000000000000000000003C
:10349000000000000000000000000000677DDF7EEB
:1034A00072902E554CF6E6880000000000000000E7
:1034B0000000000000000000D8DCB4B8B0D8B9AB00
:1034C000F3F8FAB3B7BB8E9EAEF132F51BF1B4B888
:1034D000B08097F1A9DFDFDFAADFDFDFF2AAC5CD79
:1034E000C7A90CC92C97F1A989264666B28999A962
:1034F0002D557DB0B08AA896365676F1BAA3B4B2EF
:1035000080C0B8A89711B28398BAA3F024084410D9
:103510006418B2B9B49883F1A329557DBAB5B1A3A3
:103520008393F0002850F5B2B6AA839328547CF117
:10353000B9A3829361BAA2DADEDFDB819AB9AEF574
:10354000606870F1DABAA2DFD9BAA2FAB9A382929E
:10355000DB31BAA2D9BAA2F8DF85A4D0C1BBAD8352
:10356000C2C5C7B8A2DFDFDFBAA0DFDFDFD8D8F17E
:10357000B8AAB38DB4980D355DB2B6BAAF8C9619B2
:103580008F9FA70E161EB49AB8AA872C547CBAA493
:10359000B08AB691325676B28494A4C808CDD8B811
:1035A000B4B0F19982A82D557D98A80E161EA22CB4
:1035B000547C92A4F02C5078F184A898C4CDFCD807
:1035C0000DDBA8FC2DF3D9BAA6F8DABAA6DED8BA74
:1035D000B2B68696A6D0F3C841DAA6C8F8D8B0B479
:1035E000B882A892F52C548898F135D9F418D8F1FE
:1035F000A2D0F8F9A884D9C7DFF8F883C5DADF6963
:10360000DF83C1D8F40114F1A8824EA884F311D14C
:1036100082F5D992289788F109F41C1CD884A8F364
:10362000C0F9D1D99782F129F40DD8F3F9F9D1D99C
:1036300082F4C203D8DEDF1AD8F1A2FAF9A884987E
:10364000D9C7DFF8F8F883C7DADF69DFF883C3D8B2
:10365000F40114F198A8822EA884F311D182F5D92F
:1036600092509788F109F41CD884A8F3C0F8F9D1D6
:10367000D99782F149F40DD8F3F9F9D1D982F4C47C
:1036800003D8DEDFD8F1AD8898CCA809F9D98292A9
:10369000A8F57CF1883ACF944A6E98DB6931DAADAF
:1036A000F2DEF9D88795A8F221D1DAA5F9F417D975
:1036B000F1AE8ED0C0C3AE82C684C3A88595C8A51E
:1036C00088F2C0F1F4010EF18E9EA8C63E56F55464
:1036D000F18872F40115F19845856EF58E9E048887
:1036E000F142985A8E9E068869F4011CF1981E11C9
:1036F00008D0F504F11E970202983625DBF9D9852A
:10370000A5F3C1DA85A5F3DFD88595A8F309DAA575
:10371000FAD88292A8F578F1881A849F2688982191
:10372000DAF41DF3D8879F39D1AFD9DFDFFBF9F485
:103730000CF3D8FAD0F8DAF9F9D0DFD9F9D8F40BCC
:10374000D8F3879F39D1AFD9DFDFF41DF3D8FAFC66
:10375000A869F9F9AFD0DADEFAD9F88F9FA8F1CCD1
:10376000F398DB45D9AFDFD0F8D8F18F9FA8CAF323
:103770008809DAAF8FCBF8D8F2AD978D0CD9A5DFD9
:10378000F9BAA6F3FAF412F2D8950DD1D9BAA6F384
:10379000FADAA5F2C1BAA6F3DFD8F1BAB2B68696C4
:1037A000A6D0CAF349DAA6CBF8D8B0B4B8D8AD845D
:1037B000F2C0DFF18FCBC3A8B2B68696C8C1CBC327
:1037C000F3B0B48898A821DB718D9D71859521D9BE
:1037D000ADF2FAD88597A828D9F408D8F28D29DA5D
:1037E000F405D9F285A4C2F2D8A88D9401D1D9F4F8
:1037F00011F2D88721D8F40AD8F28498A8C801D148
:10380000D9F411D8F3A4C8BBAFD0F2DEF8F8F8F8B9
:10381000F8F8F8F8D8F1B8F6B5B9B08A95A3DE3C57
:10382000A3D9F8D85CA3D9F8D87CA3D9F8D8F8F9EB
:10383000D1A5D9DFDAFAD8B18530F7D9DED8F8309A
:10384000ADDADED8F2B48C99A32D557DA083DFDFED
:10385000DFB591A0F629D9FBD8A0FC29D9FAD8A0C8
:10386000D051D9F8D8FC51D9F9D879D9FBD8A0D002
:10387000FC79D9FAD8A1F9F9F9F9F9A0DADFDFDF93
:10388000D8A1F8F8F8F8F8ACDEF8ADDE8393AC2CEC
:10389000547CF1A8DFDFDFF69D2CDAA0DFD9FADB5C
:1038A0002DF8D8A850DAA0D0DED9D0F8F8F8DB553A
:1038B000F8D8A878DAA0D0DFD9D0FAF8F8F8F8DB91
:1038C0007DF8D89CA88CF530DB38D9D0DEDFA0D0CD
:1038D000DEDFD8A848DB58D9DFD0DEA0DFD0DED8C5
:1038E000A868DB70D9DFDFA0DFDFD8F1A888902CD3
:1038F000547C98A8D05C38D1DAF2AE8CDFF9D8B01D
:1039000087A8C1C1B188A8C6F9F9DA36D8A8F9DA0A
:1039100036D8A8F9DA36D8A8F9DA36D8A8F9DA36D6
:10392000D8F78D9DADF818DAF2AEDFD8F7ADFA30E2
:10393000D9A4DEF9D8F2AEDEFAF983A7D9C3C5C798
:10394000F1889BA77AADF7DEDFA4F8849408A797E7
:10395000F300AEF29819A488C6A39488F632DFF279
:103960008393DB09D9F2AADFD8D8AEF8F9D1DAF31C
:10397000A4DEA7F1889B7AD8F38494AE19F9DAAA69
:10398000F1DFD8A881C0C3C5C7A39283F628ADDEF6
:10399000D9F8D8A350ADD9F8D8A378ADD9F8D8F8CC
:1039A000F9D1A1DADEC3C5C7D8A18194F818F2B065
:1039B00089ACC3C5C7F1D8B8B4B09786A8319B0607
:1039C0009907AB9728889BF00C201440B0B4B8F04E
:1039D000A88A9A285078B79BA8295179247059440D
:1039E0006938644831F1BBAB88002C547CF0B38B50
:1039F000B8A804285078F1B088B49726A85998BB85
:103A0000ABB38B02264666B0B8F08A9CA8295179E0
:103A10008B2951798A2470598B2058718A446938CE
:103A20008B3940688A6448318B30496088F1AC003A
:103A30002C547CF08CA804285078F1889726A8593B
:103A400098AC8C02264666F0899CA829517924708E
:103A500059446938644831A98809205970AB113834
:103A60004069A8193148608CA83C415C207C00F179
:103A700087981986A86E767EA999882D557DD8B12C
:103A8000B5B9A3DFDFDFAED0DFAAD0DEF2ABF8F945
:103A9000D9B087C4AAF1DFDFBBAFDFDFB9D8B1F19E
:103AA000A3978E60DFB084F2C8F8F9D9DED8938589
:103AB000F14AB183A308B5839A0810B79F10D8F1D3
:103AC000B0BAAEB08AC2B2B68E9EF1FBD9F41DD8A0
:103AD000F9D90CF1D8F8F8AD61D9AEFBD8F40CF1F6
:103AE000D8F8F8AD19D9AEFBDFD8F416F1D8F8AD97
:103AF0008D61D9F4F4ACF59C9C8DDF2BBAB6AEFA8F
:103B0000F8F40BD8F1AED0F8AD51DAAEFAF8F1D83E
:103B1000B9B1B6A3839C08B9B1839AB5AAC0FD30E8
:103B200083B79F10B58B93F20202D1ABDADED8F1E6
:103B3000B080BAABC0C3B284C1C3D8B1B9F38BA350
:103B400091B609B4D9ABDEB0879CB9A3DDF1B38BD4
:103B50008B8B8B8BB087A3A3A3A3B28BB69BF2A353
:103B6000A3A3A3A3A3A3A3A3A3F1B087B59AA3F38D
:103B70009BA3A3DCBAACDFB9A3A3A3A3A3A3A3A372
:103B8000A3A3A3A3A3A3A3A3D8D8D8BBB3B7F1AAD5
:103B9000F9DAFFD9809AAA28B48098A720B7978726
:103BA000A86688F07951F1902C870CA781976293D1
:103BB000F071716085940129517990A5F1284C6CC0
:103BC000870C95188578A38390284C6C886CD8F363
:103BD000A28200F210A8921980A2F2D926D8F18808
:103BE000A84DD948D896A83980D93CD89580A8390D
:103BF000A68698D92CDA87A72CD8A8899519A980E8
:103C0000D938D8A88939A980DA3CD8A82EA8399003
:103C1000D90CD8A8953198D90CD8A809D9FFD801C2
:103C2000DAFFD89539A9DA26FFD890A80D8999A886
:103C300010809821DA2ED88999A83180DA2ED8A858
:103C400086963180DA2ED8A8873180DA2ED8A882DD
:103C500092F34180F1D92ED8A882F31980F1D92EA0
:103C6000D882ACF3C0A28022F1A62EA72EA922985A
:103C7000A829DAACDEFFD8A2F22AF1A92E8292A8F6
:103C8000F23180A696F1D900AC8C9C0C30ACDED021
:103C9000DEFFD88C9CACD010ACDE8092A2F24C82BD
:103CA000A8F1CAF235F19688A6D900D8F1FF000034
:103CB0000300002013F0030F09D0521E22BF13F897
:103CC000010B11F801CBB0EB0C00F3D07047121FC1
:103CD00022BF53F8040B51F804CB6045F7D0121DF6
:103CE0000AD200BA9CFA8CFCB0EB0C0038BF6FF023
:103CF000000088BF01207047521E22BF13F8010B3D
:103D000011F801CBB0EB0C00F6D0521C08BF1046E6
:103D1000704710B5040010000A000100200000F0F8
:103D20003DF9200010BD0000C9B2002905D01E4990
:103D3000096808431C49086005E01B49096831EA25
:103D40000000194908607047C9B2002905D0174919
:103D5000096808431549086005E01449096831EA13
:103D60000000124908607047C9B2002905D0104907
:103D7000096808430E49086005E00D49096831EA01
:103D800000000B4908607047C9B2002905D00949F5
:103D9000096808430749086005E00649096831EAEF
:103DA0000000044908607047181002401C100240CF
:103DB0000C10024010100240F0B400220026002433
:103DC00000250023002791F803C01CF00F0C624669
:103DD00091F803C05FEACC6C01D58B781A430B785D
:103DE0001B0621D00368002406E0CD78482D02D1BF
:103DF0000125A5400561641C082C14D20125A540AD
:103E00000E882E40AE42F6D1A5000F2616FA05F711
:103E1000BB4312FA05F52B43CD78282DE5D10125BA
:103E2000A5404561E7E703600B884FF48074A34227
:103E300026D34368002420E0012514F10806B5408C
:103E40000E882E40AE4217D1A5000F2616FA05F7B0
:103E5000BB4312FA05F52B43CD78282D04D101255B
:103E600014F10806B5404561CD78482D04D10125EF
:103E700014F10806B5400561641C082CDCD34360CE
:103E8000F0BC70470022806880B2084201D0012255
:103E900000E000221000C0B2704789B20161704793
:103EA00089B24161704700007047000090EA010F3D
:103EB00044BF81F00041FEF716BA431A4FF00042AA
:103EC0003EBF5340C01AC918D3095FEAD05C13EB58
:103ED000400F34BFB3EB410F40E07CEBD1530CD328
:103EE00042EA012122D8D1EB402009D3400A28BF61
:103EF0005FEA500140EBCC507047401A15D04002A9
:103F0000B0FA80F2521C9040400A4FEA3C23B3EBD7
:103F1000026384BF00EB730007E040F400001A1650
:103F2000DB07C2F10102D04018437047182BFCDCBC
:103F300031FA03F202FA03F3591A38BF42F00102D0
:103F4000D2EB40203CBF4000ACF1010C5FEACC5CFE
:103F5000C20572F100414CEB5020704713EB400F4B
:103F60000FD24B0009D0ACEBD153022B03DB49023B
:103F7000172BDDDD70479143401A4300D5D1002057
:103F8000704713EB410FD0D36FF00000704710B5AE
:103F90000400200000F036F8200010BD62F30F226C
:103FA00062F31F42401810F0030308D0C91A1FD350
:103FB000DB0748BF00F8012D28BF20F8022D1300B1
:103FC00030B414461546103928BF20E93C00FAD811
:103FD000490728BF20E90C0048BF40F8042D89009C
:103FE00028BF20F8022D48BF00F8012D30BC7047D3
:103FF000C91818BF00F8012DCB0728BF00F8012D04
:10400000704700004AB38B0707D0521E11F8013BDE
:1040100000F8013B21D08B07F7D183071ED1103A5E
:1040200007D330B4B1E83810103AA0E83810F9D20C
:1040300030BC530724BFB1E80810A0E8081044BF03
:1040400051F8043B40F8043BD20724BF31F8022B5F
:1040500020F8022B44BF0B7803707047083A07D34F
:10406000B1E80810083A40F8043B40F804CBF7D216
:104070005307E4E780B5DFF8E01288420AD1012156
:104080004FF40060FFF770FE00214FF40060FFF76F
:104090006BFEDDE0B0F1804F08D101210120FFF778
:1040A00073FE00210120FFF76FFED1E0DFF8AC12B4
:1040B000884208D101210220FFF766FE002102207C
:1040C000FFF762FEC4E0DFF89812884208D10121B0
:1040D0000420FFF759FE00210420FFF755FEB7E04A
:1040E000DFF88012884208D101210820FFF74CFE3A
:1040F00000210820FFF748FEAAE0DFF86C12884292
:1041000008D101211020FFF73FFE00211020FFF70A
:104110003BFE9DE0DFF85412884208D101212020A7
:10412000FFF732FE00212020FFF72EFE90E0DFF89F
:10413000401288420AD101214FF40050FFF714FECB
:1041400000214FF40050FFF70FFE81E0DFF824124A
:1041500088420AD101215FF40020FFF705FE00210B
:104160005FF40020FFF700FE72E0DFF80C128842D7
:104170000AD101215FF48010FFF7F6FD00215FF402
:104180008010FFF7F1FD63E0DFF8F01188420AD1FB
:1041900001215FF40010FFF7E7FD00215FF400103C
:1041A000FFF7E2FD54E0DFF8D811884208D1012181
:1041B0004020FFF7E9FD00214020FFF7E5FD47E043
:1041C000DFF8C011884208D101218020FFF7DCFD13
:1041D00000218020FFF7D8FD3AE0DFF8AC118842DB
:1041E0000AD101214FF48070FFF7CEFD00214FF47A
:1041F0008070FFF7C9FD2BE0DFF8901188420AD1EB
:1042000001215FF48030FFF7AFFD00215FF48030C3
:10421000FFF7AAFD1CE0DFF8781188420AD10121DE
:104220005FF40030FFF7A0FD00215FF40030FFF7DE
:104230009BFD0DE0DFF85C11884209D101215FF49C
:104240008020FFF791FD00215FF48020FFF78CFDB7
:1042500001BD002203881A00DFF8FC30984212D01A
:10426000DFF80C3198420ED0B0F1804F0BD0DFF860
:10427000EC30984207D0DFF8E830984203D0DFF8FE
:10428000E430984204D14FF68F731A404B881A439A
:10429000DFF8D430984208D0DFF8D030984204D00C
:1042A0004FF6FF431A40CB881A4302808A888285E2
:1042B0000A880285DFF8A02090420FD0DFF8B020F6
:1042C00090420BD0DFF8C420904207D0DFF8C02026
:1042D000904203D0DFF8BC20904201D1097A0186D8
:1042E000012181827047C9B2002904D0018851F0B0
:1042F0000101018004E001884FF6FE721140018047
:104300007047D2B2002A03D082891143818103E031
:10431000828932EA01018181704789B2C9430182F1
:10432000704730B4002200230024058A0D402B0082
:104330008089084004009BB2002B04D0A4B2002C5A
:1043400001D0012200E000221000C0B230BC704752
:1043500089B2C94301827047002C0140000400402B
:1043600000080040000C0040001000400014004015
:1043700000340140004C0140005001400054014015
:1043800000180040001C0040002000400040014098
:104390000044014000480140F0B540F2FF7581EA59
:1043A000030C0CF0004C15EA11541DBF15EA13570D
:1043B000AC42AF42E5E0BC41C1F31301C3F31303C8
:1043C000801A994143F4801304D2641E400049418D
:1043D00080185941C90241EA5051B1FBF3F603FB81
:1043E0001611A2FB0675D7EBC020A94102D2761E9A
:1043F00080185941C90241EA5051B1FBF3FE03FB59
:104400001E11A2FB0E75D7EBC020A94103D2AEF15D
:10441000010E80185941890241EA9051760546EA19
:104420008E2EB1FBF3F603FB1611A2FB0675D7EB3C
:104430008020A94102D2761E80185941C90241EA62
:1044400050514EEA060EB1FBF3F603FB1611A2FB28
:104450000675D7EBC020A94102D2761E80185941BB
:10446000C90241EA5051B1FBF3F703FB1711A2FB5C
:104470000735D3EBC020A94167F100070CBF00420C
:1044800047F0010766F3D5274FEA1E31B80814F547
:10449000806412DDBD0775F1004250EB0E5051EB08
:1044A000045111F5801F5CBF41EA0C01F0BD4CF0D6
:1044B0007F6141F0E0410020F0BDBD076D0840EA9A
:1044C0000E5041F48011D4F10104B4F120060ADA4F
:1044D000C4F120060200E04001FA06F3E14018436F
:1044E000B24015430EE0342C13DCC6F1200445EA3B
:1044F00040056D0820FA06F2154321FA06F0A140A6
:104500000D43002175F1004250F1000051EB0C0108
:10451000F0BD00205FEA0C01F0BDCFB992185B41FD
:10452000B3FA83F704BFB2FA82F6BF190B3FB7F1B3
:1045300020062FBF02FA06F3BB40C7F1200622FA7D
:1045400006F638BF3343BA401CB1E419641E33E7A2
:104550007F4231F00041B1FA81F404BFB0FA80F635
:10456000A4190B3CB4F120062FBF00FA06F1A140BC
:10457000C4F1200620FA06F638BF3143A0403C1BA8
:104580001AE7AC421ABF05EA1357AF4212E050EAED
:1045900041061CBF52EA4306BFE750EA41073046D6
:1045A00061461CBF41EA0551F0BD52EA430C08BF09
:1045B000C143F0BD00204FF4001616EB410F98BF29
:1045C00016EB430F08BF16EB410F24BFC14305E0B4
:1045D00016EB430F0CBF61464CEA0551F0BD0000DD
:1045E0007CB500F01DF900F0C9F900F004FAFDF700
:1045F000EDFA642000F0E9F9FDF778FA7A480190C5
:104600007A4800907A4B7B4A7B497C48FEF73BFC1A
:1046100076480088C005F1D576480068FDF7B8FDFA
:104620005FF09D41FDF7CCFD754908607148406819
:10463000FDF7AEFD5FF09D41FDF7C2FD71490860D9
:104640006C488068FDF7A4FD5FF09D41FDF7B8FD63
:104650006D4908606748C068FDF79AFD5FF09D41AD
:10466000FDF7AEFD69490860664800685FF04041AB
:10467000FDF70CFD65490968FDF708FD0400604879
:1046800000685FF08041FDF701FD5F490968FDF7B3
:10469000FDFC2100FDF720FEFDF770FE00F0DCF9C7
:1046A0005FF066325A4B00F045FA00F015FB5949AD
:1046B0000860544800685FF04041FDF7E7FC51494D
:1046C0000968FDF7E3FC04004F4800685FF0804193
:1046D000FDF7DCFC4C490968FDF7D8FC010020001F
:1046E000FFF7E4FB5FF07E51FDF7F6FDFDF746FEB8
:1046F00002000B0014001D00434800685FF0804179
:10470000FDF7C4FC41490968FDF7C0FC06003C48C0
:1047100000685FF08041FDF7B9FC3A490968FDF790
:10472000B5FC3100FDF7D8FDFDF728FE22002B0077
:1047300000F01AFB5FF06632354B00F0FBF900F039
:10474000CBFA354908602E4800682D490968FDF705
:104750009DFC04002B4800682A490968FDF796FC77
:104760002100FDF7B9FD04002748006826490968C3
:10477000FDF78CFC01002000FFF798FB04002348A4
:10478000006822490968FDF781FC01002000FFF75D
:104790008DFBFDF7F3FD02000B0014001D0019480E
:1047A000006819490968FDF771FC060014480068A3
:1047B00016490968FDF76AFC3100FDF78DFD5FF0D1
:1047C0008041FDF763FCFDF7D9FD22002B0000F0CE
:1047D000CBFA5FF066320E4B00F0ACF900F07CFAD9
:1047E0000E4908600AE700008E0000208C000020BF
:1047F0006C0000204C000020640000205C000020C1
:10480000380000207C000020800000208400002070
:1048100066A64C4078000020740000207000002044
:1048200080B54F48006850F001004D4908604D4880
:1048300000684D4908404B490860494800684B49A9
:104840000840474908604648006830F480204449E1
:1048500008604448006830F4FE004249086044485B
:104860005FF41F01016000F005F842485FF000515D
:10487000016001BD80B500F001F801BD82B00020EB
:104880000190002000903648006850F48030344990
:1048900008603348006810F4003000900198401C14
:1048A00001900098002803D10198B0F5A06FF0D1D5
:1048B0002B480068800302D50120009001E0002011
:1048C00000900098012847D12B48006850F0100054
:1048D0002949086028480068800880002649086047
:1048E0002548006850F00200234908601D481D4912
:1048F000096801601B481B49096801601948006884
:1049000050F48060174908601648006830F47C1045
:10491000144908601348006850F4E8101149086011
:104920000F48006850F080700D4908600C4800681E
:104930008001FBD50B4800688008800009490860A9
:104940000848006850F00200064908600548006801
:1049500010F00C000828F9D102B0704700000000E8
:1049600000100240041002400000FFF8FFFFF6FEB6
:104970000810024008ED00E000200240E0B50121EF
:104980000420FFF7E1F93248FFF774FB4FF47A7027
:10499000ADF804004720ADF800000020ADF8060097
:1049A0000020ADF8020000A92948FFF752FC0121C0
:1049B0002748FFF7B2FC012201212548FFF7A1FC9F
:1049C00001212348FFF78FFC07BD10B504002148E3
:1049D0000021018009E001211D48FFF7A2FC002809
:1049E000F9D001211A48FFF7B3FC2000441E80B221
:1049F0000028F0D110BDE0B501210120FFF7A4F996
:104A00005FF08040FFF736FB4FF47A70ADF804009A
:104A10004720ADF800000020ADF806000020ADF8FA
:104A2000020000A95FF08040FFF713FC01215FF056
:104A30008040FFF772FC012201215FF08040FFF708
:104A400060FC01215FF08040FFF74DFC07BD0000D6
:104A500000080040240800402DE9F84C04460D46AB
:104A600000F0EAF908B1022802D12046294659E0AF
:104A70002046294600220023FDF7A8FC3ABF85F016
:104A80000045082700272946274A284BFDF79EFCAA
:104A90001ED2274E0020314622462B4600F0E8F970
:104AA00082468B46002233462046294600F0A0FA73
:104AB00052465B4600F03EF800F00EFB02460B4605
:104AC00020462946FFF768FC3A4600F07DFB29E0C6
:104AD0000122174BFDF77AFC1CD21E4600203146FE
:104AE00022462B4600F0C4F982468B46002233460C
:104AF0002046294600F07CFA52465B4600F01AF840
:104B000000F0EAFA87F0020622462B46FFF744FC43
:104B10003246DAE700F054FC212101604FF0FF300B
:104B20006FF00041BDE8F48CCE3B7F669EA0E63F6F
:104B30000000F03FB0B581EA030C0CF0004C40F2ED
:104B4000FF7515EA11541DBF15EA1357AC42AF4269
:104B500039E0E41923EA455343F48013C90241F0D4
:104B6000004141EA505EC7021100A7FB0202002883
:104B70004FF00000EEFB01204FF00001E3FB0721A6
:104B800018BF42F00102401800214941E3FB0E0129
:104B9000A4F580640F0302D252004041494154F110
:104BA00001046CDD470872F1004250F1000051EB46
:104BB0000451A1F580115CBF41EA0C01B0BD4CEA83
:104BC00005510020B0BD05EA1357AC4214BFAF42F7
:104BD00041E050EA410E1CBF52EA430E02E061463A
:104BE0000020B0BD24423C441BD15FEA070EF6D042
:104BF000090302BF01460020AEF1140EB1FA81F79D
:104C0000AEEB070401FA07FE0C37C7F1200100FAEA
:104C100007F7C8404EEA000E23EA455343F48013D9
:104C2000A2E733F00043B3FA83F704BFB2FA82FE7F
:104C300077440B3FE41BB7F1200E2FBF02FA0EF3AF
:104C4000BB40C7F1200E22FA0EFE38BF43EA0E0326
:104C5000BA40641C82E750EA410E14BF52EA430E88
:104C60006FF000014FF4001717EB430F8ABF19468E
:104C700017EB410FB5E74CEA05510020B0BDD4F168
:104C80000104B4F120070FDAC4F12007520828BF4D
:104C900042F0010210FA07F501FA07F7E1BF2A43D3
:104CA000E0403843E1400FE0352C98DCC7F12004A8
:104CB00052EA400220FA07F218BF42F0010231FA2C
:104CC00007F0A1400A43002172F1004250F10000B8
:104CD00051EB0C01B0BD00004FEAF17CBCF1E04C9F
:104CE0002CBFBCF5001F11E05FEA4C0C34BFBCF1D7
:104CF0007F5F2EE05FEA9C0C4FEA0C1C4FEA3C0CF5
:104D0000C10071F100414CEB50707047C90241EA9B
:104D10005051C00218BF41F0010141F000414FEA7B
:104D20006C50C0F10900212810D240EACC7CCCF1B3
:104D3000200C11FA0CF070F10040CCF1200C21FA9B
:104D40000CF00CF0004C40EB0C0070474FEACC70BC
:104D50007047490011F5001F04D84FEACC10FF300E
:104D6000C0057047C817704738B50FB4DDE90201B8
:104D700000F062F80546DDE9000100F05DF802464A
:104D8000012D32DA012A30DA0198002807D5DDE951
:104D9000000181F00041CDE90001082400E0002479
:104DA0000398002807D5DDE9020181F00041CDE933
:104DB000020184F00604DDE90201DDE90023FDF7CC
:104DC00005FB06D2DDE90201DDE90023FFF7E4FA85
:104DD00027E0002D06D5DDE90001DDE90223FFF71C
:104DE000DBFA21E0002000211EE0022A08BFDDE9F5
:104DF00000011CD0022D08BFDDE9020117D0954249
:104E000007BF00200B4900200021019B002B4CBF55
:104E100008240024039B002B48BF84F00604012AC9
:104E200002D184F00204A4B2224600F0CDF905B00C
:104E300030BD00BF0000F03FC1F30A5240F2FF73E3
:104E40009A420DD0002A02D04FF0FF30704709037C
:104E500050EA113002D06FF0010070470020704717
:104E6000090350EA113001D0022070470120704739
:104E700070B44FF0004591EA030F44BF6B4000F05F
:104E8000C0B8841A71EB030604D26E40001BB14116
:104E9000121973414FF4001C1CEB410F34BF7CEB23
:104EA000430684E00C0DA4EB1356362E7DDC012E58
:104EB00043DC45EAC32343EA525312BFD2029202B3
:104EC0005B08240545EAC12141EA5051D2EBC020DC
:104ED000994125D407D1B0FA80F610FA06F164D0D2
:104EE0000020203608E0B1FA81F6B140C6F1200278
:104EF00020FA02F21143B0404FEAF474B4EB465486
:104F000034F001064FEA74040AD8D6F50016760D7F
:104F100004F00044F04061FA06F25040F14048408D
:104F2000C00A40EA415021F0004128BF5FEA500525
:104F300050F1000044EBD12137E045EAC323DB0AFE
:104F400045EAC121C90AB6F120050EDD42EA024256
:104F5000120CC5F1200603FA06F6EB4042EA0605FC
:104F60006D42984161F100010DE062FA06F5F240F0
:104F7000554063FA06FC82EA0C02F3405A406D4247
:104F8000904161EB030111F4801F05D1641E62059D
:104F900002D06D004041494121F48011430875F170
:104FA000004350F1000041EB045170BC70471CEB12
:104FB000410F15D223F0004352EA43060BD04FEACB
:104FC0004C0CBCEB410F04D80C0D661E342EB7DD23
:104FD000EBE7801A994150EA410608BF0021E4E757
:104FE00008BF1CEB430F28BF6FF00001DDE7000096
:104FF00070B44FF0004591EA030C44BF6B40FFF7DB
:1050000040BF841A71EB030603D2001BB141121991
:1050100073414FF4001C1CEB410F34BF7CEB430485
:1050200043E00C0DA4EB1356352E50DC45EAC323A8
:10503000DB0A45EAC121C912B6F120050DDD63FA8C
:1050400005F6EB4086EA0305124218BF45F001055C
:10505000C01851F100010CD213E062FA06F5F240DB
:105060005540F3415A40B340F3405A4080185941EB
:1050700007D349085FEA30005FEA350528BF45F0ED
:10508000010501F58011420875F1004250F1000060
:1050900041EB045170BC4FF4001C1CEB410F38BFB6
:1050A00070470020090D090570471CEB410F10D215
:1050B00052EA43060BD0BCEB410F05D80C0DAB43B5
:1050C000661E342EB5DD02E0AB438018594170BC3A
:1050D000704770BC7047000040F2FF7C0B0D4DD054
:1050E000634566D230B421EA035141F4801103F2E2
:1050F000FD3C5FEA5C0C01D300184941890041EA9C
:10510000907180004FF440140023E202D50AB1F5FB
:10511000100107D46D081DD2091B641900184941FC
:10512000491BF7D56D080AD20919641B00184941BB
:10513000491BEFD56D08F7D301E0520817D0C0180E
:1051400061419B1AAC4100184941801AA941F4D42D
:1051500052080AD0C01AA1419B186C41001849415D
:10516000801AA941E9D45208F4D15B1C6C41610852
:105170004FEA330001EB0C5130BC704750EA010399
:10518000FBD030B4B1FA81F311B9B0FA80F41B1935
:105190000B3BB3F120042FBF00FA04F19940C3F197
:1051A000200420FA04F438BF21439840D3F10103CE
:1051B0009DE76345E1D011F5801FDED850EA41013B
:1051C000DBD0D94300F002B92DE9FC4D04460D4671
:1051D0001646554A554B00F0FFF81CD8544FDFF8DF
:1051E00054813A464346FFF7A5FC0022524BFFF795
:1051F000FFFE82468B4622462B4638464146FFF745
:10520000F7FE02460B4650465946FFF7C5F80446DE
:105210000D4646F00106204629460022474BFDF781
:10522000D5F805D301224FF0795300F0D5F85DD8B9
:1052300022462B46FFF77EFC82468B4652465B4653
:1052400020462946FFF776FC074688463C483D49FC
:1052500052465B46FFF76EFC3B4A3C4BFFF7C8FEED
:1052600052465B46FFF766FC394A3A4BFFF7C0FEF1
:105270003A464346FFF75EFC02460B462046294667
:10528000FFF7B6FE04460D463348344952465B46A6
:10529000FFF750FC02460B4631483249FFF7A8FEA3
:1052A00052465B46FFF746FC02460B462E482F4906
:1052B000FFF79EFE52465B46FFF73CFC02460B465C
:1052C0002B482C49FFF794FE02460B4650465946A0
:1052D000FFF730FC0022284BFFF78AFE02460B4600
:1052E00020462946FFF758F804460D46B00748BF48
:1052F00085F0004516F007020BD0204629460FF234
:10530000800303EBC204D4E90023FFF771FE0446D7
:105310000D46300748BF85F00045CDE90045DDE981
:105320000001BDE8FC8D000057CD9E5E1426D13FE4
:10533000AA4C58E87AB6FB3F0000F0BF000040BE20
:10534000845D57134B57B03FB2934C19ED5EE43F69
:10535000BEDE02B90240F83FDE39028FC7C0743F9B
:105360008AAB1283000CC83F24D7E508B6D8F03FBB
:105370000F34580E5895FD3F0000F03F000000002C
:10538000000000000000000066732D3852C1E03FAD
:10539000182D4454FB21F93F66732D3852C1F03F5C
:1053A000182D4454FB21F93F66732D3852C100403B
:1053B000182D4454FB2109403FD038C6A6F10440C3
:1053C000014800F020B80000880000200FB5FFF76A
:1053D000F7FF212101600FBD4FF4001C1CEB410FB2
:1053E00094BF1CEB430F09E041EA030C50EA4C0C5C
:1053F00052EA0C0C03D28B4208BF8242704714BFA2
:10540000994290427047704710B5084979441C3161
:10541000074C7C441A34A14206D0081D0A68511872
:1054200088470146A142F8D110BD00BF0800000026
:105430002800000027CFFFFF540000003C000020A0
:10544000000000001BCCFFFF3C00000050010000EA
:10545000000000200000000000F009F8002801D042
:10546000FFF7D2FF0020FFF7BBF800F002F80120A1
:10547000704780B500F002B800BF0000074638460C
:1054800000F002F8FBE7000080B5C046C046024AC3
:1054900011001820ABBEFBE7260002007047FEE7B4
:1054A000FEE7FEE7FEE77047704770477047000071
:1054B000014880470148004721480000C1540000CE
:1054C000C046C046C046C046FFF7C6FFFFF7E6BF6E
:1054D000FFF7E5BFFFF7E4BFFFF7E3BFFFF7E2BF6A
:1054E000FFF7E1BFFFF7E0BFFFF7DFBFFFF7DEBF6A
:1054F000FFF7FEBFFFF7FEBFFFF7FEBFFFF7FEBFE0
:10550000FFF7FEBFFFF7FEBFFFF7FEBFFFF7FEBFCF
:10551000FFF7FEBFFFF7FEBFFFF7FEBFFFF7FEBFBF
:10552000FFF7FEBFFFF7FEBFFFF7FEBFFFF7FEBFAF
:10553000FFF7FEBFFFF7FEBFFFF7FEBFFFF7FEBF9F
:10554000FFF7FEBFFFF7FEBFFFF7FEBFFFF7FEBF8F
:10555000FFF7FEBFFFF7FEBFFFF7FEBFFFF7FEBF7F
:10556000FFF7FEBFFFF7FEBFFFF7FEBFFFF7FEBF6F
:10557000FFF7FEBFFFF7FEBFFFF7FEBFFFF7FEBF5F
:10558000FFF7FEBFFFF7FEBFFFF7FEBFFFF7FEBF4F
:10559000FFF7FEBFFFF7FEBFFFF7FEBF7C1B00005B
:1055A000C01B000000000000000000000000000020
:1055B00000000000000000000000000000000000EB
:1055C00000000000981B0000FF000000FF0000002A
:0855D000010000000000803F13
:04000005000054C1E2
:00000001FF
